{
  "contractName": "ProphecyStorage",
  "abi": [
    {
      "inputs": [],
      "name": "admin",
      "outputs": [
        {
          "internalType": "address",
          "name": "",
          "type": "address"
        }
      ],
      "stateMutability": "view",
      "type": "function"
    },
    {
      "inputs": [],
      "name": "baretax",
      "outputs": [
        {
          "internalType": "uint256",
          "name": "",
          "type": "uint256"
        }
      ],
      "stateMutability": "view",
      "type": "function"
    },
    {
      "inputs": [
        {
          "internalType": "address",
          "name": "",
          "type": "address"
        }
      ],
      "name": "blacklist",
      "outputs": [
        {
          "internalType": "bool",
          "name": "",
          "type": "bool"
        }
      ],
      "stateMutability": "view",
      "type": "function"
    },
    {
      "inputs": [],
      "name": "decimals",
      "outputs": [
        {
          "internalType": "uint8",
          "name": "",
          "type": "uint8"
        }
      ],
      "stateMutability": "view",
      "type": "function"
    },
    {
      "inputs": [],
      "name": "initialized",
      "outputs": [
        {
          "internalType": "bool",
          "name": "",
          "type": "bool"
        }
      ],
      "stateMutability": "view",
      "type": "function"
    },
    {
      "inputs": [],
      "name": "name",
      "outputs": [
        {
          "internalType": "string",
          "name": "",
          "type": "string"
        }
      ],
      "stateMutability": "view",
      "type": "function"
    },
    {
      "inputs": [],
      "name": "symbol",
      "outputs": [
        {
          "internalType": "string",
          "name": "",
          "type": "string"
        }
      ],
      "stateMutability": "view",
      "type": "function"
    }
  ],
  "bytecode": "0x608060405234801561001057600080fd5b5061037f806100206000396000f3fe608060405234801561001057600080fd5b506004361061007d5760003560e01c806358bf88401161005b57806358bf88401461014657806395d89b4114610164578063f851a440146101e7578063f9f92be41461021b5761007d565b806306fdde0314610082578063158ef93e14610105578063313ce56714610125575b600080fd5b61008a610275565b6040518080602001828103825283818151815260200191508051906020019080838360005b838110156100ca5780820151818401526020810190506100af565b50505050905090810190601f1680156100f75780820380516001836020036101000a031916815260200191505b509250505060405180910390f35b61010d6102ae565b60405180821515815260200191505060405180910390f35b61012d6102bf565b604051808260ff16815260200191505060405180910390f35b61014e6102c4565b6040518082815260200191505060405180910390f35b61016c6102ca565b6040518080602001828103825283818151815260200191508051906020019080838360005b838110156101ac578082015181840152602081019050610191565b50505050905090810190601f1680156101d95780820380516001836020036101000a031916815260200191505b509250505060405180910390f35b6101ef610303565b604051808273ffffffffffffffffffffffffffffffffffffffff16815260200191505060405180910390f35b61025d6004803603602081101561023157600080fd5b81019080803573ffffffffffffffffffffffffffffffffffffffff169060200190929190505050610329565b60405180821515815260200191505060405180910390f35b6040518060400160405280600d81526020017f50726f7068656379544f4b454e0000000000000000000000000000000000000081525081565b60008054906101000a900460ff1681565b601281565b60055481565b6040518060400160405280600381526020017f505259000000000000000000000000000000000000000000000000000000000081525081565b600660009054906101000a900473ffffffffffffffffffffffffffffffffffffffff1681565b60036020528060005260406000206000915054906101000a900460ff168156fea264697066735822122010bdf21128c8fb84e033b5844a8f04c6303461b86d150cf999e6c462b1f0aa5d64736f6c634300060c0033",
  "immutableReferences": {},
  "source": "// SPDX-License-Identifier: MIT\n\npragma solidity ^0.6.0;\n\ncontract ProphecyStorage {\n    /** WARNING: NEVER RE-ORDER VARIABLES! \n     *  Always double-check that new variables are added APPEND-ONLY.\n     *  Re-ordering variables can permanently BREAK the deployed proxy contract.\n     */\n\n    bool public initialized;\n\n    mapping(address => uint256) internal _balances;\n\n    mapping(address => mapping(address => uint256)) internal _allowances;\n\n    mapping(address => bool) public blacklist;\n\n    uint256 internal _totalSupply;\n\n    string public constant name = \"ProphecyTOKEN\";\n    string public constant symbol = \"PRY\";\n    uint256 public baretax;\n    uint8 public constant decimals = 18;\n    address public admin;\n    uint256 internal constant deci = 1e18;\n\n    bool internal getpause;\n}",
  "sourcePath": "/home/samarth/1 JOB MAIN/Prophet Token/contracts/ProphecyStorage.sol",
  "compiler": {
    "name": "solc",
    "version": "0.6.12+commit.27d51765.Emscripten.clang"
  },
  "schemaVersion": "3.3.1",
  "updatedAt": "2020-12-07T12:03:53.240Z",
  "devdoc": {
    "kind": "dev",
    "methods": {},
    "version": 1
  },
  "userdoc": {
    "kind": "user",
    "methods": {
      "initialized()": {
        "notice": "WARNING: NEVER RE-ORDER VARIABLES!   Always double-check that new variables are added APPEND-ONLY.  Re-ordering variables can permanently BREAK the deployed proxy contract."
      }
    },
    "version": 1
  }
}