{
  "contractName": "Proxiable",
  "abi": [
    {
      "inputs": [],
      "name": "proxiableUUID",
      "outputs": [
        {
          "internalType": "bytes32",
          "name": "",
          "type": "bytes32"
        }
      ],
      "stateMutability": "pure",
      "type": "function"
    }
  ],
  "bytecode": "0x6080604052348015600f57600080fd5b5060aa8061001e6000396000f3fe6080604052348015600f57600080fd5b506004361060285760003560e01c806352d1902d14602d575b600080fd5b60336049565b6040518082815260200191505060405180910390f35b60007fc5f16f0fcc639fa48a6947836d9850f504798523bf8c9a3a87d5876cf622bcf760001b90509056fea2646970667358221220ac0b521131a9bfed26ca945faf1b41090bf99fce72bf7960fa1bbcb2735bbb9264736f6c634300060c0033",
  "immutableReferences": {},
  "source": "// SPDX-License-Identifier: MIT\n\npragma solidity ^0.6.0;\n\ncontract Proxiable {\n    // Code position in storage is keccak256(\"PROXIABLE\") = \"0xc5f16f0fcc639fa48a6947836d9850f504798523bf8c9a3a87d5876cf622bcf7\"\n\n    function updateCodeAddress(address newAddress) internal {\n        require(\n            bytes32(\n                0xc5f16f0fcc639fa48a6947836d9850f504798523bf8c9a3a87d5876cf622bcf7\n            ) == Proxiable(newAddress).proxiableUUID(),\n            \"Not compatible\"\n        );\n        assembly {\n            // solium-disable-line\n            sstore(\n                0xc5f16f0fcc639fa48a6947836d9850f504798523bf8c9a3a87d5876cf622bcf7,\n                newAddress\n            )\n        }\n    }\n\n    function proxiableUUID() public pure returns (bytes32) {\n        return\n            0xc5f16f0fcc639fa48a6947836d9850f504798523bf8c9a3a87d5876cf622bcf7;\n    }\n}\n",
  "sourcePath": "/home/samarth/1 JOB MAIN/Prophet Token/contracts/Proxiable.sol",
  "compiler": {
    "name": "solc",
    "version": "0.6.12+commit.27d51765.Emscripten.clang"
  },
  "schemaVersion": "3.3.1",
  "updatedAt": "2020-12-07T12:03:53.257Z",
  "devdoc": {
    "kind": "dev",
    "methods": {},
    "version": 1
  },
  "userdoc": {
    "kind": "user",
    "methods": {},
    "version": 1
  }
}